:020000040800F2
:10000000A8240020D9010008072500086B23000858
:1000100005250008CF060008B343000800000000D3
:100020000000000000000000000000003D28000863
:100030002D080008000000001D2800083F280008C7
:10004000F3010008F3010008F3010008F3010008C0
:10005000F3010008F3010008F3010008F3010008B0
:10006000F3010008F3010008F3010008F3010008A0
:10007000F3010008F3010008F3010008F301000890
:10008000F3010008F3010008F30100083143000800
:100090003D430008F3010008F3010008310800089F
:1000A000F3010008BD280008F3010008F30100086F
:1000B000F3010008F3010008F3010008F301000850
:1000C000F3010008F3010008F301000821280008EB
:1000D000F3010008F3010008F3010008F301000830
:1000E000F3010008F3010008A538000800F002F849
:1000F00000F063F80AA090E8000C82448344AAF15F
:100100000107DA4501D100F058F8AFF2090EBAE85C
:100110000F0013F0010F18BFFB1A43F0010318473B
:10012000E8490000084A000010F8013B0A4413F0B7
:10013000030408BF10F8014B1D1108BF10F8015B44
:10014000641E05D010F8016B641E01F8016BF9D133
:10015000002D15D010F8014B03F00C030C2BA1EB74
:1001600004040ABF10F8013BA4EB8314A4EB03249E
:1001700005F1010314F8016B5B1E01F8016BF9D561
:10018000914238BF10F8013BD1D3704700230024BF
:1001900000250026103A28BF78C1FBD8520728BF97
:1001A00030C148BF0B607047752900F07780002090
:1001B00070471FB51FBD10B510BD00F04EFA1146B7
:1001C000FFF7F7FF04F0CCF900F06CFA03B4FFF787
:1001D000F2FF03BC00F074FA094880470948004761
:1001E000FEE7FEE7FEE7FEE7FEE7FEE7FEE7FEE7E7
:1001F000FEE7FEE704480549054A064B7047000044
:10020000B9280008ED000008A81E0020A82400203E
:10021000A8200020A8200020B2F120030AD5C2F1B6
:10022000200320FA02F001FA03F321FA02F140EA76
:100230000300704721FA03F04FF0000170470000FF
:100240000FB41CB5074B06AA7B446946009005987D
:1002500000F0C1F90020694600F0D0F91CBC5DF83F
:1002600014FB0000B10300000FB41CB50C0007AA7A
:10027000009001D02044401E074B7B44694601900A
:10028000069800F0A8F9002C03D06946002000F081
:10029000B5F91CBC5DF814FB890300002DE9F041A1
:1002A0000646002410687529314616A510D0AFF314
:1002B0000080002802DA404213A507E031688A076F
:1002C00001D512A502E0490704D511A5012401E0DA
:1002D000AFF3008000210A2206F1240709E0B0FBF9
:1002E000F2FCB0FBF2F302FB1C00303078541846ED
:1002F000491C0028F3D123462A463046BDE8F04188
:1003000000F00AB9000000002D0000002B000000E2
:10031000200000002DE9F0410F460546002028622C
:100320002846E968884770B3252805D0D5E901211A
:100330009047286A401CF2E7E9682846002688476B
:100340006C2804460AD0682C08D04C2C35D06A2C76
:1003500031D0742C31D07A2C2FD016E0E9680646C3
:1003600028468847B042044608D16C2E23D04FF46B
:1003700080662846E9688847044606E06C2E03D06C
:100380004FF4807601E01EE04026E4B1A4F1410084
:10039000192802D8203446F400663A4621462846F9
:1003A0002E60FFF701FF60B1012808D0FF1D27F084
:1003B00007070837B4E78026DBE70026D9E73F1DAB
:1003C000AEE72046B2E7286ABDE8F08110B5431CCD
:1003D00002E010F8011B71B18107FAD14FF0013230
:1003E00002C88C1A8C4314EAC211F9D0C01A0A064A
:1003F00003D0C01E10BDC01A10BD0A0401D0801E5B
:1004000010BD0902FCD0401E10BD10B5203AC0F04E
:100410000B80B1E81850203AA0E81850B1E8185005
:10042000A0E81850BFF4F5AF5FEA027C24BFB1E842
:100430001850A0E8185044BF18C918C0BDE81040B3
:100440005FEA827C24BF51F8043B40F8043B08BFBC
:100450007047D20728BF31F8023B48BF11F8012B83
:1004600028BF20F8023B48BF00F8012B70474FF02F
:10047000000200B5134694469646203922BFA0E8F4
:100480000C50A0E80C50B1F12001BFF4F7AF090700
:1004900028BFA0E80C5048BF0CC05DF804EB8900F1
:1004A00028BF40F8042B08BF704748BF20F8022B34
:1004B00011F0804F18BF00F8012B704710B50446AB
:1004C00010F0030F08BF11F0030F40F015804FF03C
:1004D000013E121FC0F20E8051F8043BA3EB0E0C3C
:1004E0002CEA030C1CEACE1C08BF40F8043BF0D0F9
:1004F000A1F1040102F10402521E08DB11F8013BD4
:10050000002B00F8013BF7D1114600F084F820469B
:1005100010BD7047704770472DE9F0470D4699466A
:100520009246044600F124080168880604D5E06973
:1005300021F01001216000E00120A84201DD471BED
:1005400000E00027A1697A1902EB0900081AA061EE
:100550002078C00602D42046AFF30080002608E0D1
:10056000D4E901211AF806009047206A401C761C45
:1005700020624E45F4DB2078C0060AD52046AFF352
:10058000008006E0D4E9012130209047206A401C19
:100590002062381EA7F10107F4DC07E0D4E901214D
:1005A00018F805009047206A401C2062281EA5F11B
:1005B0000105F3DC2046AFF300802078000602D569
:1005C0000220BDE8F0870120FBE7000001694A1C1A
:1005D00002610878704700B58FB0CDE90131002184
:1005E000059105497944CDE9031011466846FFF7A6
:1005F00091FE0FB000BD0000E5FFFFFF0A6802F8A2
:10060000010B0A607047D1E900239A4202D2531CC1
:100610000B60107070474FF000020429C0F0128088
:1006200010F0030C3FF425AFCCF1040CBCF1020F29
:1006300018BF00F8012BA8BF20F8022BA1EB0C017A
:10064000FFF717BF5FEAC17C24BF00F8012B00F859
:10065000012B48BF00F8012B7047754600F02CF8BD
:10066000AE4605006946534620F00700854618B09F
:1006700020B5FFF7BFFDBDE820404FF000064FF06A
:1006800000074FF000084FF0000B21F00701AC46C7
:10069000ACE8C009ACE8C009ACE8C009ACE8C009E6
:1006A0008D46704710B50446AFF300802046BDE884
:1006B0001040FFF78BBD000000487047481E002027
:1006C00001491820ABBEFEE7260002007047FEE796
:1006D00004284FF0000070470020704710B500223A
:1006E0000449054802F0FBF90449034802F0F1F916
:1006F000002010BD54150020A80C00206C11002013
:1007000070B50C46014611482268FFF7D7FE2068F5
:100710000E4C002626540EA11148FFF791FD2078BB
:10072000832809D10F4D28700D48FFF74FFE81B285
:100730000B4800F01BF82E700B4802F0A9F9207846
:10074000012801D100F028F8002070BD5C0B0020CA
:1007500055534220636F6E6E65637465640D0000CF
:10076000FC0B002006000020A80C002010B50A4653
:100770000849D1F8B812D1F81412002901D001208B
:1007800010BD0146034802F0AAF9BDE81040014837
:1007900002F020BAA80C002070B4224D687800281E
:1007A0003DD00020012300211F4C00266A5C9A42A4
:1007B00031D1092B33D05A1CD3B26A1892F801C038
:1007C000BCF1100F06D0BCF1110F0ED0BCF1200F00
:1007D00014D020E0265404EB000C92788CF8012011
:1007E000401CC0B2C91CC9B215E09278225422182C
:1007F0005670401CC0B2C91CC9B20CE092F802C0CD
:1008000004F800C004EB000CD2788CF80120401CE6
:10081000C0B2091DC9B2401CC0B22329C6D370BCE6
:10082000704700005C0B0020800B00207047000028
:1008300070B50A4D4FF480742146284600F010FB35
:1008400030B164002146284600F00AFB002804D19C
:100850002046BDE8704000F007BA70BD00080140B6
:1008600072B6FEE706490020C8610648016941F0FA
:1008700004010161016941F040010161704700001C
:10088000880C002000200240064A0021D161064960
:100890000A6942F002020A614861086940F04000BA
:1008A00008617047880C002000200240044B0022A1
:1008B000DA61044A136943F0010313610180704750
:1008C000880C00200020024014480022C168CB069A
:1008D000134904D5CA6942F00202CA611022C368F2
:1008E0005B0705D5CB6943F00103CB6142F00402FD
:1008F000C369DB0707D0CB6943F00403CB61C1694F
:1009000021F00101C161A2F58071013901D0C260FD
:100910007047C16921F00101C161704700200240A8
:10092000880C002070B5054600F0A4FA0646114C6C
:1009300009E0681C07D025B100F09CFA801BA84292
:1009400001D9032070BDE068C007F2D1E0688006DD
:1009500001D52020E060E068C00605D4E069C0074A
:1009600002D1E068400703D5FFF7AEFF012070BD5C
:10097000002070BD0020024070B50B480168001DCA
:100980000568001D0068084400280CD0074C0822A8
:10099000A11C01F0EBFC04F112012846BDE87040F7
:1009A000042201F0E3BC70BDE8F7FF1F1C0A002021
:1009B00030B50223437103689C6844F001049C60D5
:1009C000002304E0056851F823402C605B1C93422F
:1009D000F8D30168096801224271084630BD10B59C
:1009E000040002D0607910B106E0012010BD0020A3
:1009F0002071204600F004F801206071002010BD35
:100A00007047000010B590F821100024022903D08F
:100A10000421816301243DE001680A6822F00E028E
:100A20000A6001680A6822F001020A601A4A016835
:100A3000914201D1012121E0174A1432914201D1A2
:100A400010211BE0144A2832914201D1891515E08A
:100A5000114A3C32914201D189140FE00E4A5032C2
:100A6000914202D14FF4803108E00B4A6432914246
:100A700002D14FF4801101E04FF08071064A083A2C
:100A80005160012180F82110002180F82010416B75
:100A900001B18847204610BD0800024070B50446E9
:100AA00000F0E8F90546601C02D0044800780444D0
:100AB00000F0E0F9401BA042FAD370BDD809002035
:100AC0002DE9F047054626480F460126017E0129FB
:100AD0000FD00121814601762868DFF888804CF22A
:100AE0005034022808D0A2462046FFF71BFFA8B1C9
:100AF00031E00220BDE8F0872046FFF713FF08BB76
:100B00000120FFF7AFFE2046FFF70CFFD8F81010CA
:100B1000064621F00401C8F810101CE04FF0FF3029
:100B20003860AC6811E02046FFF7AEFE5046FFF794
:100B3000F9FED8F81010060021F00201C8F81010D4
:100B400001D03C6007E004F58064D5E9020100EBC8
:100B50008120A042E7D8002189F818103046C9E763
:100B6000880C0020002002400148C0697047000046
:100B7000880C00200348016941F0800101610020D8
:100B800070470000002002402DE9F05F07461C4836
:100B900088460024017E15461E46012909D0012100
:100BA000814601764CF2503A5046FFF7BBFE18B131
:100BB00022E00220BDE8F09F012F02D0022F00D0DA
:100BC0000427D346DFF83CA0220128463146FFF730
:100BD00023FB81B208EB4400FFF768FE5846FFF79D
:100BE000A1FEDAF8102022F00102CAF8102018B98C
:100BF000641CE4B2BC42E7D3002289F81820D9E78C
:100C0000880C002000200240064900200A691206D4
:100C100007D5054A4A60054A4A600969090600D5B0
:100C2000012070470020024023016745AB89EFCDCA
:100C30000C49B0F5807F4A7904D0B0F5007F08D028
:100C400000BF7047521CD0B248710528F9D300206C
:100C500005E0521ED0B24871FF28F2D1042048713D
:100C60007047000000000020044910B50A680242E5
:100C700002D00860FFF7DCFF10BD00001404014043
:100C80002DE9F84FDFF8B891002409F1040A0AF1C0
:100C9000040B23460F270BF1040EC9E00125A540E4
:100CA0002A40AA427DD1674ED1F804C0ACEB0608B9
:100CB000B44532D014DCBCF1030F3AD009DCBCF1EE
:100CC000000F2AD0BCF1010F1CD0BCF1020F31D1B2
:100CD0001DE0BCF1110F17D0BCF1120F2AD119E0A1
:100CE000B8F5881F19D006DCB8F5803F15D0B8F5E7
:100CF000801F1FD111E0B8F5001F0ED0B8F5041FFA
:100D000018D10AE0CB6815E0CB681B1D12E0CB6858
:100D100008330FE0CB680C330CE08B682BB1012B50
:100D20004FF0080303D0456104E0042302E00561AD
:100D300000E00023FF2A01D8064601E000F1040686
:100D40004FEA840501D9A5F12005D6F8008007FAFD
:100D500005FC28EA0C0803FA05F548EA0508C6F878
:100D600000804D68ED0062D5374DAE6946F0010652
:100D7000AE61AD6924F0030605F001050095334D21
:100D800006EB050CDCF80850A607360F07FA06F844
:100D900025EA0805DFF8B880404503D14FF0000888
:100DA00017E044E0DFF8AC80404502D14FF0010885
:100DB0000FE0DFF8A480404502D14FF0020808E0C0
:100DC000DFF89880404502D14FF0030801E04FF072
:100DD000040808FA06F848EA0508CCF808804D68C7
:100DE000D9F80060ED034D4601D5164300E0964367
:100DF0002E604D68DAF80060AD03554601D5164304
:100E000000E096432E604D68DBF80060ED025D4621
:100E100001D5164300E096432E604D68DEF8006071
:100E2000AD02754601D5164300E096432E60641C62
:100E30000D682A46E5407FF431AFBDE8F88F000029
:100E400000040140000011100010024000000140A9
:100E500000080140000C0140001001400014014056
:100E60008068084000D0012070470AB101617047D6
:100E70000904FBE70148806870470000D80900209A
:100E8000024881680278114481607047D8090020C7
:100E9000074810B5016841F010010160032000F01F
:100EA00075F8002000F006F800F024F8002010BDCE
:100EB0000020024070B50D4D04464FF47A71287839
:100EC000B1FBF0F00A490968B1FBF0F001F05EF9FE
:100ED00048B9102C07D200222146501E00F036F8E7
:100EE00000206C6070BD012070BD0000D80900209A
:100EF000E40900200C4808B5816941F001018161D5
:100F0000816901F001010091C16941F08051C16125
:100F1000C06900F0805000900448416821F0E06111
:100F200041F00071416008BD001002400000014026
:100F3000002809DB00F01F020121914040098000D8
:100F400000F1E020C0F8001170470000F0B40E4B33
:100F50001B680C46C3F30223C3F10705042D00D917
:100F60000425191D072901D2002300E0DB1E0126FC
:100F700006FA05F1491E214099409E40761E164012
:100F80003143F0BC03F036BA0CED00E0064900F046
:100F9000070208684FF6FF03184040EA0220034AA0
:100FA00010430860704700000CED00E00000FA05F7
:100FB00010B50C0607D501F0070101EB810100EB2C
:100FC000C100283005E001EB810100EBC10000F514
:100FD000B47099B232B1012202730181190C4181BE
:100FE000002010BD00220273C180F9E7704701EBB9
:100FF000810200EBC202D0F8E802D26B02F05AB8CC
:1010000001EB810200EBC202D0F8E802D2F87C21A9
:1010100002F0BBB870B504460B0601F0070000EB08
:10102000800104EBC1014FF001024FF0000503D530
:1010300081F82920283103E081F8695101F5B47164
:10104000087094F8A802012808D084F8A822206823
:1010500002F06CFD84F8A852002070BD022070BD23
:1010600070B5044601F00F006268904201D901207A
:1010700070BD0B0601F0070000EB800104EBC1011D
:101080004FF001024FF0000503D581F829202831E7
:1010900003E081F8695101F5B4718D70087094F81E
:1010A000A802012808D084F8A822206802F0DBFDFD
:1010B00084F8A852002070BD022070BD2DE9F05FB9
:1010C00004685FEA424C0B788D69B4F850C04FF069
:1010D00000064BF68F7948F2800A48F68F7B48F27B
:1010E000C00E4FF480672AD54FF0020808EBC30802
:1010F000C44407EB4C07E45BC4F30904A54203D3E3
:101100002D1B8D6101D00BE08E61066836F82350EF
:1011100005EA090585F4005545EA0A0526F8235035
:10112000520609D50D78036833F8252002EA0B0230
:1011300042EA0E0223F8252084B30A8929E04FF001
:10114000060808EBC308C44407EB4C07E45BC4F390
:101150000904A54203D32D1B8D6101D00BE08E61E4
:10116000066836F8235005EA090585F4005545EA76
:101170000A0526F82350520609D40B78056835F87D
:10118000232002EA0B0242EA0E0225F823202CB1AA
:101190004A8949690068234603F0DAF82046BDE829
:1011A000F09F2DE9F05F054600680C465FEA426C4F
:1011B00016468B692278B0F850C048F68F774CF20B
:1011C00080094FF6FF7B4FF4004E4FF4806A4FF0DA
:1011D00000017BD54FF0020808EBC208E0440AEB9F
:1011E000480C30F80C00C0F30900834211D91B1AD7
:1011F000A3610FD0730407D52E6836F822303B4028
:1012000043EA090326F8223094F82420012A50D01A
:101210004EE1A161607810B1012813D01AE028686E
:10122000B0F85030184400EB0210B0F8042422F457
:10123000F842A0F80424B0F8042442F40042A0F8D4
:10124000042407E02868B0F85030184400EB02107E
:10125000A0F804146278286812B1012A11D018E0AD
:10126000B0F850100844217800EB0110B0F80C14CD
:1012700021F4F841A0F80C14B0F80C1441F400412A
:1012800005E0B0F850201044227800EB0210A0F8DE
:101290000C1421782846FFF7AAFE7004B8D52178EF
:1012A0002A6832F82100384040EA090022F821007B
:1012B000FEE0626902446261E2690244E26123691C
:1012C000226A9A4203D31846111A04E038E084F8DF
:1012D00024100AB110462162617811B1012923D08E
:1012E0002BE02968B1F850201144227801EB02115B
:1012F00001F2044148B13E280FD84208C30700D08C
:10130000521C0BEA82220A8017E00A8822F4F84273
:101310000A800A8842F40042F5E74209C30600D178
:10132000521E4EEA8222EEE72968B1F8502011449D
:10133000227801EB0211A1F8040483B22289B3E000
:101340004FF0060808EBC208E0440AEB480C30F8FE
:101350000C00C0F30900834211D31B1AA3610FD004
:10136000730407D42E6836F822303B4043EA090361
:1013700026F8223094F82420012A50D098E0A16168
:10138000607810B1012813D01AE02868B0F8503006
:10139000184400EB0210B0F8042422F4F842A0F83C
:1013A0000424B0F8042442F40042A0F8042407E026
:1013B0002868B0F85030184400EB0210A0F804146C
:1013C0006278286812B1012A11D018E0B0F85010E4
:1013D0000844217800EB0110B0F80C1421F4F84116
:1013E000A0F80C14B0F80C1441F4004105E0B0F87A
:1013F00050201044227800EB0210A0F80C14217841
:101400002846FFF7F4FD700452D42278296831F899
:101410002200384040EA090021F8220048E06269D1
:1014200002446261E2690244E2612369226A9A42EB
:1014300003D31846111A216204E00AB11046216252
:1014400084F824106278296812B1012A22D029E098
:10145000B1F850201144227801EB021101F20C4145
:1014600048B13E280FD84208C30700D0521C0BEAEF
:1014700082220A8016E00A8822F4F8420A800A884A
:1014800042F40042F5E74209C30600D1521E4EEA7B
:101490008222EEE7B1F850201144227801EB0211CC
:1014A000A1F80C04628983B26169286802F06EFFBA
:1014B00021782A6832F8210048F6BF73184080F07E
:1014C000300048F28003184322F821000020BDE8D4
:1014D000F09F01F0070101EB810100EBC100D0F8A2
:1014E000840170472DE9F04104460F0601F0070022
:1014F00000EB800104EBC1014FF001064FF0000545
:1015000003D581F82960283103E081F8695101F59C
:10151000B47108700A61CB704A7802B1C881022B9D
:1015200000D10D7194F8A802012809D084F8A862AE
:10153000206802F0CDF9284684F8A852BDE8F08171
:101540000220FBE770B50C4601F0070505EB8501AD
:1015500000EBC101C1E95F230022C1F8842181F8B9
:10156000692181F8685101F5B4716207006802F0E1
:10157000CFFB002070BD70B504460D4601F007009A
:101580006168884201D9012070BD29064FF000062C
:101590004FF0010207D500EB800104EBC10181F897
:1015A0002920283107E005EB850104EBC10181F812
:1015B000696101F5B4718A70087094F8A802012875
:1015C00007D084F8A822206802F089FB680702D0BF
:1015D00006E0022070BD04F52C71206802F041FB8A
:1015E00084F8A862002070BD70B50C4601F00705B4
:1015F00005EB850100EBC101C1E90F23012281F850
:101600004C208B6400234B6481F8292001F8285F6B
:101610006207006802F07CFB002070BD1FB5044625
:10162000006802F091FE000402D5204600F06CFF35
:10163000206802F089FE40050CD5206830F8441F70
:1016400021F480610180204600F04AF90021204603
:1016500000F061F9206802F077FE400405D52068AB
:1016600030F8441F21F480410180206802F06CFEB4
:10167000800405D5206830F8441F21F40051018012
:10168000206802F061FEC00414D5206830F8401FC5
:1016900021F004010180206830F8401F21F008018A
:1016A0000180204600F02FF9206830F8441F21F413
:1016B00080510180206802F047FE00053ED5226877
:1016C0000020694632F8203021F81030401CC0B2AA
:1016D0000828F7D332F8400F40F00100108020684E
:1016E00030F8402F22F0010202802068B0F8442038
:1016F0005205FBD530F8442F22F48062028000208E
:10170000236831F8102023F82020401CC0B208289C
:10171000F6D3206830F8401F41F0080101802068AE
:1017200030F8441F21F400610180206830F8401F28
:1017300041F004010180204600F022F9206802F007
:1017400003FE800508D5206830F8441F21F400719D
:101750000180204600F0DBF8206802F0F5FDC005AE
:1017600005D5206830F8441F21F4807101801FBD29
:101770002DE9F04186B0040004D094F8A9020025B8
:1017800020B108E0012006B0BDE8F08184F8A8523D
:10179000204600F05BF8032084F8A902206802F0DC
:1017A00059FA04F11001142288466846FEF72DFE0E
:1017B00094E80F0002F0B8F90226D0BB002120689F
:1017C00002F0DCFD002001270FE000BF00EB8001EC
:1017D00004EBC10181F8297001F8280FC881CD7090
:1017E0000D614D61401CC0B28D6161688142EDD8D0
:1017F000002011E000EB800104EBC10181F8695188
:1018000081F8680181F86B51C1F87851C1F87C51B9
:10181000401CC0B2C1F8805161688142EAD81422EC
:1018200041466846FEF7F1FD94E80F0002F009FA20
:1018300010B184F8A962A5E784F8245084F8A9724D
:10184000206802F0FCF900209DE7000038B504464E
:101850002068A0F18041B1F5B84137D11C48C16979
:1018600041F40001C161C06900F400000090002251
:1018700011461320FFF76AFB1320FFF759FB0022E4
:1018800011461420FFF762FB1420FFF751FBA069FB
:1018900001281BD181040F4801600F48016821F421
:1018A00080210160001F016841F4802101600B4824
:1018B000016841F480210160002211462A20FFF7CF
:1018C00045FBBDE838402A20FFF732BB38BD000099
:1018D00000100240140401400C04014000040140C7
:1018E00070B504460125A068022801D0FEF7B8FFB4
:1018F0002946D4F8E80201F038FDD4F8E802BDE842
:10190000704001F0F3BCD0F8E80201F018BDD0F847
:10191000E80201F01EBD10B5044690F8A8020128A7
:101920000BD0012084F8A80284F82410206802F06B
:1019300027FD002084F8A80210BD022010BDD0F8B9
:10194000E82200F52C71104601F01BBD10B50446CD
:1019500090F8A802012810D0012084F8A80220687D
:1019600002F0DCFC01212046FFF740FB206802F07A
:1019700064F9002084F8A80210BD022010BD000008
:1019800010B50446D4F8E80201F03CFDA069002837
:1019900004D00348016841F00601016010BD000059
:1019A00010ED00E00648026822F0040202600129FE
:1019B00003D040BF20BF20BF704730BF704700003A
:1019C00010ED00E02DE9F84305460078354CC007DE
:1019D00054D0E0690026C00008D4E06940F080508F
:1019E000E061E069012600F0805000902E48016817
:1019F000C90512D40168804641F480710160FFF787
:101A000039FA074605E000BFFFF734FAC01B642827
:101A100023D8D8F80000C005F6D5206A10F440702D
:101A200021D0A98801F4407181421CD0206A1F494D
:101A3000012220F440700A6000220A602062C00780
:101A400011D0FFF717FA074641F2883808E000BFC7
:101A5000FFF710FAC11B414502D90320BDE8F88306
:101A6000206A8007F4D5206A696820F44070084332
:101A700020621EB1E06920F08050E0612878800784
:101A800005D56068A96820F4404008436060287864
:101A9000C00605D56068E96820F4800008436060EE
:101AA0000020DBE70010024000700040400442428A
:101AB0002DE9F0470F46050061D0434E306800F035
:101AC0000700B84209D2306820F007003843306080
:101AD000306800F00700B84251D128683B4C8107BC
:101AE00012D5400703D5606840F4E0606060287854
:101AF000000703D5606840F4605060606068A968C2
:101B000020F0F000084360602878C00728D068689B
:101B1000012810D02168022810D0890700292EDA68
:101B2000616821F0030101436160FFF7A3F980467A
:101B300041F288390DE021688903EFE78901EDE77B
:101B4000FFF798F9A0EB0801494502D90320BDE849
:101B5000F0876068696800F00C00B0EB810FEFD18E
:101B6000306800F00700B8420BD9306820F0070059
:101B700038433060306800F00700B84201D00120DF
:101B8000E5E72878400705D56068E96820F4E0605B
:101B9000084360602878000706D56068296920F44A
:101BA000605040EAC100606000F018F86168084ABF
:101BB000C1F30311515CC84006490860064800683B
:101BC000FFF778F90020C2E7002002400010024031
:101BD000F84A0008E4090020DC09002012A185B0C1
:101BE0000FC98DE80F0014A0144A006804905168D2
:101BF000134801F00C03042B10D0082B0ED1C1F3B5
:101C00008343C9031DF803000AD5516804AAC1F330
:101C10004041515C0A4A5043B0FBF1F005B07047B7
:101C200008494843FAE700000203040506070809CB
:101C30000A0B0C0D0E0F10100102000000100240E4
:101C400000127A0000093D002DE9F84F040070D021
:101C50002078C04DC00749D06868C0F381000128D2
:101C600007D06868C0F38100022809D16868C00302
:101C700006D52868800339D560680028E7D035E0AC
:101C80006068B0F5803F0BD010B1B0F5A02F11D037
:101C9000286820F480302860286820F4802002E042
:101CA000286840F480302860606890B1FFF7E2F85F
:101CB00006460AE0286840F480202860F0E700BF6C
:101CC000FFF7D8F8801B642873D828688003F7D5FD
:101CD0000CE0FFF7CFF8064605E000BFFFF7CAF8B3
:101CE000801B6428F0D828688003F7D420789A4EA7
:101CF00080074FF001094FF0000839D5686810F0EF
:101D00000C0F07D06868C0F38100022809D1686809
:101D1000C00306D42868800714D52069012808D19B
:101D200010E02069B0B1C6F80090FFF7A3F80746AD
:101D300005E00AE1FFF79EF8C01B0228C4D8286816
:101D40008007F7D52868616920F0F80040EAC100F3
:101D500028600DE0C6F80080FFF78CF8074604E025
:101D6000FFF788F8C01B022823D828688007F7D41B
:101D7000207800072CD57948A169D9B1C0F8009026
:101D8000FFF778F8074604E0FFF774F8C01B022855
:101D90000FD8686A8007F7D571484FF4FA51006888
:101DA000B0FBF1F0009000BF0098411E0091FAD204
:101DB0000EE080E0C0F80080FFF75CF8074604E022
:101DC000FFF758F8C01B022875D8686A8007F7D457
:101DD0002078400760D5E8690027C00008D4E8698A
:101DE00040F08050E861E869012700F080500090E1
:101DF0005C480168C90513D40168834641F48071C9
:101E00000160FFF737F8824606E000BFFFF732F8BF
:101E1000A0EB0A0064284ED8DBF80000C005F5D519
:101E2000E06801280AD008B1052813D0286A20F0FC
:101E300001002862286A20F0040002E0286A40F0CD
:101E400001002862E06841F2883B98B1FFF712F880
:101E500082460BE0286A40F004002862EEE700BFEB
:101E6000FFF708F8A0EB0A0159455AD8286A8007FD
:101E7000F6D50CE0FEF7FEFF824605E0FEF7FAFF1E
:101E8000A0EB0A0159454CD8286A8007F6D41FB147
:101E9000E86920F08050E861E06988B36968C1F3BF
:101EA0008101022944D00228C6F8608004D0FEF7E0
:101EB000E1FF044638E034E0FEF7DCFF074604E0CB
:101EC000FEF7D8FFC01B02282BD828688001F7D462
:101ED000206AB0F5803F05D16868A16820F4003021
:101EE00008436860D4E908010843696821F4741163
:101EF00008436860C6F86090FEF7BCFF044606E041
:101F000025E000BFFEF7B6FF001B022809D82868AD
:101F10008001F7D51BE000BFFEF7ACFF001B0228D5
:101F200002D90320BDE8F88F28688001F4D40EE0C0
:101F30000128F7D06868226A00F48031914204D108
:101F4000616A00F47010884201D00120EAE70020A5
:101F5000E8E70000001002400000424280044242D4
:101F6000E4090020007000404FF0E020016941F0DA
:101F7000020101617047704738B504460068426845
:101F80008168C9434B0606D5CB0704D1D3435B0612
:101F900001D4216C05E08B0708D4D3431B0605D47C
:101FA000616C01B02046BDE8304008478B0601D582
:101FB0004B0646D4D3439B0643D44B060AD494F82D
:101FC0005130032B3ED0636D43F004036365C36857
:101FD00083680093890609D4616D41F00101616550
:101FE00081680091016821F040010160606D002866
:101FF00027D02068416821F0E0014160012084F889
:102000005100900722D02068416821F0030141600F
:10201000104DE06C40B14563E06CFEF7F3FC18B185
:10202000606D40F040006065A06C002809D04563F9
:10203000A06CFEF7E7FC002803D0606D40F0400084
:10204000606538BDC1688068009038BD2046FFF7E4
:1020500092FF38BD2D28000870B5040009D0606AD1
:10206000002540B125616561A56294F8510040B139
:102070000CE0012070BD6068B0F5827FF4D0E561AE
:10208000F2E784F85050204600F040F8022084F82F
:1020900051002068016821F040010160A088218979
:1020A00000F4827001F404410843A18901F4006145
:1020B0000843217C01F002010843217D01F0010168
:1020C0000843218B01F400710843217F01F038019E
:1020D000084394F8201001F080010843218D01F499
:1020E0000051084321680860A069042101EA1040FA
:1020F000216848602068C16921F40061C16165659B
:10210000012084F85100002070BD000030B585B07A
:1021100000240094019402940394006818498842B2
:102120002BD11848816941F480518161816901F4A2
:1021300080510491816941F0040181618069124DEF
:1021400000F004000490A0200090022001900320E1
:10215000039069462846FEF793FD4020CDE9000430
:10216000694628460294FEF78BFD00221146232083
:10217000FEF7ECFE2320FEF7DBFE05B030BD0000CD
:1021800000300140001002400008014010B5401E20
:10219000B0F1807F01D3012010BD4FF0E0246061D9
:1021A0000F21601702F026F90020A06107202061AE
:1021B000002010BD4FF0E020016921F00201016113
:1021C000704770477047704770B5044600680169F2
:1021D0004FF00005C943890715D4C168C943890771
:1021E00011D4E91E016101202077206880698007F1
:1021F000204602D0FFF7E7FF04E000F098F8204601
:1022000000F096F8257720680169C943490717D47B
:10221000C168C943490713D46FF00401016102206A
:1022200020772068806910F4407F204602D0FFF7B5
:10223000CAFF04E000F07BF8204600F079F825772B
:1022400020680169C943090716D4C168C943090751
:1022500012D46FF008010161042020772068C06962
:102260008007204602D0FFF7AEFF04E000F05FF8E1
:10227000204600F05DF8257720680169C943C9064A
:1022800017D4C168C943C90613D46FF010010161A6
:10229000082020772068C06910F4407F204602D0D3
:1022A000FFF791FF04E000F042F8204600F040F80C
:1022B000257720680169C943C90708D1C168C943A6
:1022C000C90704D1891E0161204600F033F8206857
:1022D0000169C943090609D4C168C943090605D47F
:1022E0006FF0800101612046FFF76BFF20680169F4
:1022F000C943490609D4C168C943490605D46FF0EA
:1023000040010161204600F02FF820680169C943AF
:1023100089060BD4C168C943890607D46FF0200130
:1023200001612046BDE87040FFF74CBF70BD7047AB
:102330007047000010B50068094988420AD1094C6D
:10234000207840B1FFF736FF01210846FFF72AFB4E
:102350000020207010BDBDE81040FFF705BE000052
:10236000002C0140000000207047FEE7F0B400237D
:10237000002A18D90A24302537269C46B4EB107F52
:1023800004D905EB107701F8137003E006EB107722
:1023900001F81370000101EB430787F801C05B1CD3
:1023A000DBB29342EAD3F0BC704700002DE9F04164
:1023B00086B0002429480094019402940394816912
:1023C00041F010018161816901F01001049181697E
:1023D00041F020018161816901F02001049181694E
:1023E00041F0040181618069012200F004001C4F6A
:1023F0005503049029463846FEF737FDDFF8648020
:1024000000220F214046FEF730FD009502260125EF
:102410000396CDE9015469463846FEF731FC0F209A
:10242000CDE90005CDE9024669464046FEF728FCA5
:102430004FF4407000900C48CDE9010469464046D5
:10244000FEF71EFC002211461720FEF77FFD172025
:10245000FEF76EFD06B0BDE8F081000000100240FE
:102460000010014000080140000021100F4810B585
:102470000D4901604FF48271416000214FF4006208
:10248000C0E9021292100161C0E905122822C0E9D8
:102490000721416281620721C162FFF7DDFD00284B
:1024A00001D072B6FEE710BD00300140A40B002041
:1024B00010B500220F49104800F0D4FD08B1FEF716
:1024C000CFF90E490C4800F0C3FF08B1FEF7C8F978
:1024D0000B49094800F0F5FA08B1FEF7C1F90648C2
:1024E00001F068F8002803D0BDE81040FEF7B8B945
:1024F00010BD0000E8090020A80C0020240B0020DB
:10250000380A0020FEE7FEE72DE9F84F044640F6C2
:102510008F7B48F60F7A4FF002094FF4806874E120
:10252000B0F8441011F00F063AD030F82670390494
:102530007DD530F8261001EA0B0141F0800120F82A
:10254000261006EB860004EBC00595F8740105F52E
:10255000B47500286CD0E87802286AD02878226800
:1025600032F8201048F68F73194048F2C00319431F
:1025700022F820102878D4F800C03CF82010BCF8CD
:10258000502049047ED509EBC000111808EB41002A
:102590003CF800008005800D009074D02A89D8E0B6
:1025A000C9062DD4018801EA0A0141F400410180E5
:1025B000216804F12805B1F850202B7809EBC300FD
:1025C000024408EB4200085AC0F309006064E16B62
:1025D0000844E06300212046FEF709FD94F824003A
:1025E00000289CD0A869002899D194F8240021687B
:1025F00040F08000A1F84C00002084F8240004E1A1
:10260000018804F5B4750A0521D5B0F850202B785F
:10261000062101EBC3010A4408EB4201405A04F5CC
:102620002C71C0F30903EB61EA88206802E0ACE09A
:1026300068E07AE001F08CFE2168088800EA0B006F
:1026400040F0800008802046FFF779F9DDE00904BA
:10265000D5D5018801EA0B0141F080010180206895
:10266000B0F850202B78062101EBC3010A4408EB97
:102670004201405A83059B0DEB6110D0696971B12D
:10268000EA8801E058E056E0206801F061FEE9695F
:1026900068690844686100212046FEF7B1FC2068A3
:1026A000018809052DD4B0F850100844296900F2BA
:1026B0000C4051B13E2910D84A08C90700D0521C1D
:1026C0004FF6FF7101EA82210FE0018821F4F84101
:1026D0000180018841F4004107E04A09C90600D1A0
:1026E000521E4FF4004141EA822101802068018896
:1026F0004BF68F72114081F4405148F28002114331
:10270000018082E0D4F800C0BCF850102A7806207E
:1027100000EBC200014408EB41003CF800008005DA
:10272000800D00901AD0EA8813E03A4629462046E8
:10273000FEF7C4FC009011E0062101EBC000111867
:1027400008EB41003CF800008005800D009005D0AA
:102750006A8903466046696901F0FAFDE9690098F3
:102760000844E8616969009808446861A86918B17B
:1027700029690098814204D929782046FEF740FC57
:1027800003E02946206801F0C3FA38063DD506EB80
:10279000860004EBC001206830F8262002EA0A0215
:1027A00042F4004220F8262091F82B00283103281B
:1027B00004D018B1022824D1F80522D42368B3F834
:1027C00050200D7809EBC500024408EB4200185A6E
:1027D0008A69C0F3090082420CD9121A8A610BD0AF
:1027E0004A6902444A61CA691044C861206801F01C
:1027F0008FFA0AE000208861E9B22046FEF7F7FB75
:1028000003E03A462046FEF7CCFC2068B0F84410BE
:1028100009043FF585AE0020BDE8F88F7047000041
:102820000148FFF7A9BB0000A40B002010B5406AC7
:102830000021C187C186FFF79EFB10BD7047FEF7E0
:102840001FBB30B593B028216846FDF710FE142158
:102850000AA8FDF70CFE002401200F941094119497
:10286000010412948DE8130004900005CDE90810CE
:10287000022507956846FFF7E7F908B172B6FEE74B
:102880000F20CDE90A054FF48060CDE90C4001210D
:102890000AA80E94FFF70CF908B172B6FEE71020F3
:1028A0000F90800412900FA8FFF78CF8002801D039
:1028B00072B6FEE713B030BD704700000148FFF765
:1028C00083BC0000300C002070B5D0F8B822D0F8DE
:1028D000C052002A1BD001EB810C00EB8C030026B8
:1028E000DC6954B105EBCC0CDCF838C0B4FBFCF56A
:1028F0000CFB154CBCF1000F03D0C2F81462002091
:1029000070BDDE6100231A4600F085FDF7E7022066
:1029100070BD70B50546D5F8B842284600F07AFC7F
:10292000C4F80C02D5F8B80248B1D5F8BC12D4F8F6
:102930000402CA6804F503719047002070BD0220AC
:1029400070BD70B5044600268121204600F0A9FB29
:102950000025E5620121204600F0A3FBC4F86C517C
:102960008221204600F09DFB2564D4F8B80248B1CE
:10297000D4F8BC0240688047D4F8B80200F08CFF5D
:10298000C4F8B852304670BD10B5D0F8B842D0F88F
:10299000BC1200290BD094F80002FF2807D08B68E6
:1029A00094F8012221469847FF2084F80002002075
:1029B00010BD00000A210180004870474C0A002029
:1029C00043210180004870479C0A00204321018078
:1029D00000487047580A0020432101800048704792
:1029E000E00A002070B504460026207C012500285E
:1029F00031D0402302228121204600F062FCE562B2
:102A0000402302220121204600F05BFCC4F86C51F7
:102A1000082303228221204600F053FC25644FF452
:102A2000077000F03BFFC4F8B80230B30546D4F895
:102A3000BC02006880470020C5F81402C5F81802DF
:102A4000207CE0B1402301212046D5F8042200F08B
:102A500044FC304670BD4FF40073022281212046B1
:102A600000F02FFCE5624FF40073022201212046A2
:102A700000F027FCC4F86C51CAE70126E9E74FF4DF
:102A8000007301212046D5F8042200F026FCE0E77F
:102A900010B5D0F8B812002911D0027C3AB1D1F8A3
:102AA00004224023012100F018FC002010BDD1F8C1
:102AB00004224FF40073012100F00FFCF5E702201F
:102AC00010BD02460220002902D0C2F8BC1200202C
:102AD0007047D0F8B802C0F8041200207047D0F850
:102AE000B802C0F80812C0F8102200207047F0B5F4
:102AF00083B005460C46D5F8B872002002900190CC
:102B00000026207810F060012ED0202907D0214621
:102B1000284600F0A5F8022603B03046F0BDE28852
:102B2000D2B110F0800F0BD0D5F8BC1260788B6852
:102B300039469847E2883946284600F0B7F8EBE76F
:102B4000607887F80002A07987F80102E2883946A8
:102B5000284600F091F8DFE7D5F8BC126078002233
:102B60008B6821469847D7E7607848B10A2817D084
:102B70000B2825D02146284600F072F80226CBE724
:102B800095F89C02032805D02146284600F068F8F5
:102B90000226C1E7022201A9284600F087F8BBE718
:102BA00095F89C02032805D02146284600F058F8E5
:102BB0000226B1E7012202A9284600F077F8ABE728
:102BC00095F89C020328A7D02146284600F048F833
:102BD0000226A1E710B5D0F8B812002914D0D1F818
:102BE00014220AB1012010BD0122C1F81422D1F82B
:102BF00010220263B1F8102293B2D1F80822812189
:102C000000F009FC002010BD022010BD10B5D0F866
:102C1000B42252689047002010BD90F89C22012AEF
:102C200005D0022A03D0032A01D000F019B8498840
:102C3000012904D10021C0F8A41200F044B8704763
:102C400010B513460A46002100F047FB002010BDD6
:102C500010B513460A46002100F0DDFB002010BD30
:102C600010B504468021204600F0BAFB2046BDE89E
:102C70001040002100F0B4BB10B50323C0F894321B
:102C8000C0F85C21C0F8602113460A46002100F01C
:102C900024FB002010BD10B50521C0F894120023BC
:102CA0001A46194600F019FB002010BD10B502238A
:102CB000C0F89432C261026213460A46002100F055
:102CC000AAFB002010BD10B50421C0F89412002307
:102CD0001A46194600F09FFB002010BD10B50028D1
:102CE00006D00A46054906A000F088F9034810BD41
:102CF0000A46024902A000F081F9F7E76C0F0020B4
:102D000043444320436F6E666967000012200880C9
:102D100000487047080A002010B5002806D00A466F
:102D2000054906A000F06AF9034810BD0A460249A9
:102D300002A000F063F9F7E76C0F00204344432042
:102D4000496E746572666163650000000420088046
:102D500000487047040A002010B50A46024903A043
:102D600000F04CF9004810BD6C0F002053544D6921
:102D700063726F656C656374726F6E696373000074
:102D800010B5002806D00A46054906A000F036F91D
:102D9000034810BD0A46024902A000F02FF9F7E7E8
:102DA0006C0F002053544D33322056697274756194
:102DB0006C20436F6D506F727400000010B51A20C4
:102DC0000880FDF7D9FD014810BD00001C0A002055
:102DD000CA88012A01D0FFF743BF90F89C22012A3C
:102DE00005D0022A03D0032A08D0FFF739BF0021FB
:102DF0008160012200F10801FFF758BF0122011D87
:102E0000FFF754BF2DE9F84304460F460020009019
:102E1000002600257888010A082970D2DFE801F031
:102E2000AB040C22ABAB8B9AD4F8B012207C0A68AE
:102E3000694690470646A3E0207C4FF0020840B167
:102E4000D4F8B402C16A68468847064686F801800D
:102E500096E0D4F8B402816A68468847064686F848
:102E600001808DE0C0B206285FD2DFE800F00312D7
:102E700021303F4FD4F8B002426822B1207C69462D
:102E8000904706467CE039462046FFF7E9FE0125DB
:102E900076E0D4F8B002826822B1207C694690477F
:102EA00006466DE039462046FFF7DAFE012567E069
:102EB000D4F8B002C26822B1207C69469047064629
:102EC0005EE039462046FFF7CBFE012558E0D4F8F6
:102ED000B002026922B1207C6946904706464FE065
:102EE00039462046FFF7BCFE012549E0D4F8B00280
:102EF00042692AB1207C69469047064640E03AE0A4
:102F000039462046FFF7ACFE012539E0D4F8B0027F
:102F1000826922B1207C69469047064630E03946F6
:102F20002046FFF79DFE01252AE039462046FFF79F
:102F300097FE012524E0207C28B139462046FFF782
:102F40008FFE01251CE0D4F8B402416B6846884727
:102F5000064615E0207C28B139462046FFF780FE62
:102F600001250DE0D4F8B402016B68468847064697
:102F70000721717004E039462046FFF771FE0125F4
:102F8000002D12D1BDF8000048B1FA883AB1824252
:102F900000D90246009231462046FFF787FEF888A6
:102FA000002802D12046FFF78EFEBDE8F8830021FD
:102FB0000278002A05D0491CC9B2401C0278002AB8
:102FC000F9D10846704790F89C22012A05D0022AC0
:102FD00003D0032A01D0FFF743BECA88022A01D0DA
:102FE000FFF73EBE0121C160D0F8A41209B1032150
:102FF000C160022200F10C01FFF758BE70B5044613
:103000000D461646002C1AD02046FFF7D0FF0221AD
:1030100001EB400030803078287003210220697075
:10302000217800290BD0002214F8013B411CC9B2C1
:103030002B54481CC0B26A5421780029F4D170BDC9
:1030400001460020002906D0012905D0022905D01B
:10305000032905D0022070470220704701207047E5
:103060000220704710B5002810D0D0F8B43213B148
:103070000023C0F8B43209B1C0F8B012012180F8C1
:103080009C12027000F0CAF8002010BD022010BD92
:1030900010B5D0F8C002FDF7E3FFBDE81040FFF720
:1030A000CFBF10B5D0F8C002FDF7B4FFBDE81040A7
:1030B000FFF7C6BF70B504469446002909D0D4F87E
:1030C000B40242691AB194F89C02032859D0022034
:1030D00070BD04F11400D4F894120025022904D024
:1030E000042940D000293ED041E0C36801698B42E9
:1030F0000DD9591AC1608AB261462046FFF7A8FD72
:1031000000231A461946204600F0E7F82FE08068B1
:10311000B0FBF1F201FB12029AB9884211D3D4F844
:10312000981288420DD2002211462046FFF790FDEA
:10313000C4F8985200231A461946204600F0CDF8EC
:1031400015E0D4F8B402C16829B194F89C020328B0
:1031500001D1204688478021204600F041F92046D1
:10316000FFF799FD03E08021204600F039F994F83B
:10317000A002012807D1204600F073F984F8A0527C
:1031800001E020469047002070BD10B50446084677
:103190001146002809D0D4F8B4128A691AB194F8FB
:1031A0009C12032931D0022010BD04F5AA70D4F876
:1031B0009432032B02D0052B1FD029E0D0F810C089
:1031C000C36863450BD9A3EB0C03C360006983425A
:1031D00000D303469AB22046FFF732FD18E0D4F838
:1031E000B402016929B194F89C02032801D1204658
:1031F00088472046FFF767FD0AE00020C4F89402E4
:103200000021204600F0ECF802E0014620469047FD
:10321000002010BDD0F8C002FEF75BB910B504461F
:103220001D48C0F8E842C4F8C0021C4901600821EA
:1032300041600221816001218161C161002101623F
:10324000FEF796FA08B1FDF70BFB00221823114692
:10325000D4F8C002FDF7ACFE582300228021D4F838
:10326000C002FDF7A5FEC02300228121D4F8C002D0
:10327000FDF79EFE4FF4887300220121D4F8C002AE
:10328000FDF796FE4FF4807300228221D4F8C0022D
:10329000FDF78EFE002010BD5C1B0020005C00408E
:1032A00011F0800F01F07F01D0F8C00201EB810125
:1032B00000EBC10002D090F82A00704790F86A0134
:1032C000704710B59C461346D0F8C0026246FEF720
:1032D00009F9BDE81040FFF7B3BE10B5D0F8C00241
:1032E000FEF730F9BDE81040FFF7AABE70B50446FE
:1032F0000022402311462046FFF7E3FF0125C4F8D2
:1033000058514026C4F864614023002280212046A1
:10331000FFF7D7FFA561666284F89C520020C4F8CD
:1033200094026060C4F8A402D4F8B80228B1D4F8BA
:10333000B4020021426820469047002070BD90F8FA
:103340009C12042903D190F89D1280F89C12002051
:10335000704710B590F89C12032904D1D0F8B4122C
:10336000C96901B18847002010BD01740020704771
:1033700010B5D0F8C002FEF7CEFABDE81040FFF756
:103380005FBE10B5044604F52A7000F04DF8012028
:10339000C4F89402B4F8AE02C4F8980294F8A812E3
:1033A00011F01F000AD001280ED0022812D001F01F
:1033B0008001204600F014F8002010BD04F52A71A9
:1033C000204600F0FCF8F7E704F52A71204600F0EB
:1033D0002EFAF1E704F52A71204600F030F9EBE708
:1033E00010B5D0F8C002FEF7C6F8BDE81040FFF7F0
:1033F00027BE10B5D0F8C002FEF7A8FABDE810400D
:10340000FFF71EBE90F89C1280F89D12042180F8F0
:103410009C120020704710B5D0F8C002FEF7E4F807
:10342000BDE81040FFF70CBE0A7802704A7842707F
:103430008A78CB7802EB032242800A794B7902EB3F
:10344000032282808A79C97902EB0121C180704709
:1034500002460020002902D0C2F8B41270470220B0
:1034600070470020704770B504468888002821D135
:10347000C888F8B9488880281CD200F07F0594F8E5
:103480009C0203280DD084F89E5229462046FFF75F
:103490006FFF2046FFF717FC45B1022084F89C021D
:1034A00070BD2046BDE87040FFF7DABB012084F80C
:1034B0009C0270BD2046BDE87040FFF7D1BB10B53F
:1034C0000224D0F8B422002A03D01268904700B931
:1034D0000024204610BD000070B504460D46304E55
:1034E000A9783170012905D929462046BDE87040E8
:1034F000FFF7B6BB94F89C0202280BD0032823D018
:1035000029462046FFF7ACFB31782046BDE87040E5
:10351000FFF77CBB99B16160032084F89C022046D0
:10352000FFF7CDFF022804D02046BDE87040FFF72A
:10353000CABB29462046BDE87040FFF791BB204634
:10354000BDE87040FFF7BFBB91B16068884221D0F1
:10355000C1B22046FFF75AFB317861602046FFF781
:10356000AEFF022810D02046BDE87040FFF7ABBB8D
:10357000022084F89C0261602046FFF747FB20464A
:10358000BDE87040FFF79FBB29462046BDE870406C
:10359000FFF766BB2046BDE87040FFF794BB000014
:1035A000480A00204988012903D1C0F8A412FFF776
:1035B0008ABB704710B5FFF71CFF002010BD10B587
:1035C00003460024087810F060020ED0202A06D0AE
:1035D000402A04D01846FFF743FB204610BDD3F81D
:1035E000B402826818469047F7E748780A2822D242
:1035F000DFE800F0151D211921090521110D1846DC
:10360000FFF700FCE9E71846FFF72DFFE5E718464E
:10361000FFF762FFE1E71846FFF7DAFBDDE7184640
:10362000FFF7D1FCD9E71846FFF7BCFFD5E71846EE
:10363000FFF7F3FAD1E71846FFF712FBCDE72DE9C4
:10364000F0410446084600260179037813F0600231
:1036500011D0202A08D0402A06D001462046FFF784
:10366000FFFA3046BDE8F081D4F8B4128A6801460A
:1036700020469047F5E703F06002202A0BD04278FD
:10368000002A61D0012A37D0032A0CD001462046F7
:10369000FFF7E6FAE5E7D4F8B4128A680146204657
:1036A000BDE8F041104794F89C22022A06D0032A74
:1036B00014D001462046FFF7D3FAD2E749B180295A
:1036C00007D02046FFF78CFE80212046FFF788FEBA
:1036D000C7E701462046FFF7C3FAC2E742883AB976
:1036E00031B1802904D0C08810B92046FFF778FE98
:1036F0002046FFF7E8FAB4E794F89C22022A06D0A5
:10370000032A14D001462046FFF7AAFAA9E749B1D7
:10371000802907D02046FFF763FE80212046FFF76F
:103720005FFE9EE701462046FFF79AFA99E7408838
:10373000002896D111F07F0F02D02046FFF7A8FC99
:103740002046FFF7C0FA8CE794F89C220027022A53
:1037500006D0032A26D001462046FFF781FA80E7EB
:1037600031B1802904D001462046FFF779FA78E785
:1037700011F0800F08D001F07F0000EB800004EB17
:10378000800000F1140107E001F07F0000EB8000F1
:1037900004EB800000F5AA710F6002222046FFF7BB
:1037A00085FA5EE711F0800F0CD001F00F0202EBFA
:1037B000820204EB820292696AB901462046FFF751
:1037C0004FFA4EE701F00F0202EB820204EB820295
:1037D000D2F858215AB111F0800F0DD001F07F00BE
:1037E00000EB800004EB800000F114050CE00146C2
:1037F0002046FFF735FA34E701F07F0000EB800048
:1038000004EB800000F5AA7541B1802906D020465E
:10381000FFF746FD20B10120286002E02F6000E0A4
:103820002F60022229462046FFF740FA19E770B5BB
:1038300005460C46207810F0600209D0202A07D0F7
:10384000402A05D021462846FFF70AFA002070BD1D
:1038500095F89C22012A08D0022A06D0032A04D017
:1038600021462846FFF7FCF9F0E7207901280ED819
:10387000D5F8B4022146826828469047E18800299D
:10388000E4D10028E2D12846FFF71DFADEE7214601
:103890002846FFF7E5F9D9E7704700000048704770
:1038A0003C190020074810B5806930B1064801680E
:1038B00021F006010160FEF7C4FF04494FF48020A7
:1038C000086010BD5C1B002010ED00E014040140F6
:1038D0002DE9F0470C78002630F8243048F68F1296
:1038E0001340CA78002A7DD0012A7CD0022A02D057
:1038F000032A7FD0012648F28002134320F82430A7
:103900000D7830F8254048F68F731C402C43144343
:1039100020F825400D7B48F2C00C48F6BF744CF2ED
:1039200080074BF68F79EDB391F80080C24630F8EE
:10393000285048F280181D4045EA080520F82A5012
:10394000B0F8505091F80080054405EB0815B1F827
:10395000088028F00108A5F80084B0F8505091F8CC
:103960000080054405EB0815B1F80A8028F001082D
:10397000A5F808844D78002D0D7830F825804FEAA1
:1039800048487DD0B8F1000F07DA30F8258008EA02
:10399000030848EA070820F825800F7830F82750F8
:1039A0006D0600E02CE006D530F827501D4045EAB2
:1039B0000C0520F82750CB780D78012B30F82530F6
:1039C00003EA040301D083F02003134320F82530D9
:1039D0000B7830F8231001EA0901114320F8231075
:1039E000304602E003E008E004E0BDE8F08743F47D
:1039F000007380E743F4C0637DE743F480637AE7B4
:103A00004D782DB3B0F850500F78054405EB0715ED
:103A1000CF8827F00107A5F800740F7830F82750F9
:103A20006D0606D530F827501D4045EA0C0520F8F4
:103A30002750CB78012B06D00B7830F8231021408B
:103A400081F02001C9E70B7830F823102140C4E74A
:103A5000B0F850400D78044404EB0514CD8825F0EF
:103A60000105A4F80854B0F850400D78044404EB64
:103A700005140D6904F20C4475B13E2D14D800E014
:103A800030E04FEA550CED0701D00CF1010C4FF678
:103A9000FF7505EA8C2511E0258825F4F845258079
:103AA000258845F4004509E04FEA551CED0601D193
:103AB000ACF1010C4FF4004545EA8C2525800D78CA
:103AC00030F82540640405D530F825401C403C43BF
:103AD00020F825400B7830F8231001EA090181F421
:103AE00040517AE7B8F1000F07DA30F8258008EA8C
:103AF000030848EA070820F825800F7830F8275097
:103B00006D0606D530F827501D4045EA0C0520F813
:103B100027500D7830F8253003EA090383F4405329
:103B2000134320F825308EE7002070472DE9F0433D
:103B300091F80C804F780A7848F6BF7C4BF68F7965
:103B400048F2800348F2C0054CF2800648F68F74B4
:103B5000B8F1000F28D0002F30F822704FEA474705
:103B600048D0002F05DA30F822702740374320F87C
:103B700022700A7830F822707F0605D530F822705E
:103B800027402F4320F822700D7830F8252022405E
:103B9000324320F825200C7830F8242002EA0C0269
:103BA0001A4320F824201AE07FB130F8226076060C
:103BB00005D530F8226026402E4320F822600A788E
:103BC00030F8221001EA0C010EE030F822506D04AA
:103BD00005D530F822502540354320F822500A7888
:103BE00030F8221001EA0901194320F822100020C0
:103BF000BDE8F083002F05DA30F822702740374304
:103C000020F822700A7830F82260760605D530F860
:103C1000226026402E4320F822600E7830F82620BD
:103C200022402A4320F826200C7830F8242002EA8B
:103C300009021A4320F82420C1E700207047002021
:103C40007047012120F8401F0021018081800182FE
:103C50000846704730F8401F21F43F4101800020A2
:103C600070470020704730B50A7BB2BB4A7848F6EF
:103C70008F7548F28004C2B10B7830F823205206C9
:103C800007D530F823202A4048F2C0052A4320F8FF
:103C90002320CA78012A20D00A7830F8221048F66A
:103CA000BF73194081F0200114E00A7830F8223007
:103CB0005B0407D530F822302B404CF280052B43B3
:103CC00020F822300A7830F822104BF68F73194012
:103CD00081F44051214320F82210002030BD10B55E
:103CE0004A780978002A48F2800330F8212005D06C
:103CF00048F6BF74224082F0100204E04BF68F7445
:103D0000224082F480521A4320F82120002010BD66
:103D10002DE9F0470E464B78097B04464FF0000929
:103D200048F68F7248F2800A4FF6FF774FF400484A
:103D3000012B09D000296ED0F07802286CD0012820
:103D40006BD00120BDE8F087B5693069854200D9A4
:103D50000546C9B1F17848F28013022923D03178A1
:103D600034F821001040184324F82100306A401B29
:103D70003062307834F82010490671787ED50029F9
:103D80007DD001297CD03FE1ABB2F2882046716939
:103D900000F0FCFAB4F850003178204400EB011038
:103DA000A0F80454EAE0316A81426AD9317834F8E3
:103DB00021001040184324F82100306A401B306273
:103DC000307834F82010490671786CD511B101298A
:103DD00024D02AE0B4F85010214401EB001000F286
:103DE0000C404DB13E2D0FD86908EA0700D0491CA0
:103DF00007EA8121018018E0018821F4F84101805F
:103E0000018841F40041F5E76909EA0600D1491E3D
:103E100048EA8121EEE79CE1BCE126E2B4F85020BB
:103E2000111901EB0010A0F80C547289ABB22046B6
:103E3000716900F0ABFA7069284470613169306AC9
:103E4000884202D9401B306202E00546C6F8209045
:103E5000707800287CD1B4F850003178204400EB11
:103E6000011000F204406DB13E2D13D86908EA0735
:103E700000D0491C07EA8121018012E001E19BE0AA
:103E8000BBE084E0018821F4F8410180018841F41D
:103E90000041F1E76909EA0600D1491E48EA81219B
:103EA000EAE7328965E011B1012921D027E0B4F8B1
:103EB0005010214401EB001000F204404DB13E2DA2
:103EC0000FD86908EA0700D0491C07EA8121018060
:103ED00015E0018821F4F8410180018841F4004196
:103EE000F5E76909EA0600D1491E48EA8121EEE7B3
:103EF000B4F85010214401EB0010A0F804543289AA
:103F0000ABB22046716900F041FA706928447061D3
:103F10003169306A884202D9401B306202E00546AE
:103F2000C6F82090707800287ED1B4F8500031781F
:103F3000204400EB011000F20C4055B13E2D10D88A
:103F40006908EA0700D0491C07EA812101800FE0D7
:103F500072E0018821F4F8410180018841F40041B8
:103F6000F4E76909EA0600D1491E48EA8121EDE734
:103F70007289ABB22046716900F008FA317834F8E2
:103F8000210048F6BF72104080F03000C0E1327866
:103F900034F8220048F68F63184040EA0A0024F8FB
:103FA0002200B4F850003278204400EB02108BB2AB
:103FB000A0F804343289DDE7B4F85010214401EB55
:103FC000001000F20C404DB13E2D0FD86908EA07F1
:103FD00000D0491C07EA8121018015E0018821F405
:103FE000F8410180018841F40041F5E76909EA06DA
:103FF00000D1491E48EA8121EEE7B4F8502011199A
:1040000001EB0010A0F80C547289ABB22046716924
:1040100000F0BCF97069284470613169306A8842E7
:1040200003D9401B306203E06EE00546C6F82090DD
:10403000002DA3D0707858B101287FF41EAFB4F8DA
:1040400050003178204400EB0110A0F8045428E718
:10405000B4F850003178204400EB011101F2044122
:104060003E2D06D86808EA0700D0401C07EA8020E9
:1040700005E06809EA0600D1401E48EA8020088071
:104080000FE711B1012921D027E0B4F850102144E5
:1040900001EB001000F204404DB13E2D0FD869082D
:1040A000EA0700D0491C07EA8121018015E0018858
:1040B00021F4F8410180018841F40041F5E76909E4
:1040C000EA0600D1491E48EA8121EEE7B4F8501013
:1040D000214401EB0010A0F804543289ABB2204611
:1040E000716900F053F97069284470613169306A70
:1040F000884202D9401B306202E00546C6F8209093
:10410000002D96D0707858B101287FF420AFB4F814
:1041100050100819317800EB0110A0F80C5427E773
:10412000B4F850003178204400EB011101F20C4149
:104130003E2D06D86808EA0700D0401C07EA802018
:1041400005E06809EA0600D1401E48EA80200880A0
:104150000EE7B1693069814202D9091AB161B5E04F
:104160000846C6F81890B1E0088820F4F8400880A6
:10417000088840F400400BE03E2875D84208C0078C
:1041800000D0521C07EA822002E000BF48EA8220E9
:104190000880B5E093B9B4F850003178204400EBC2
:1041A0000110316900F2044069B13E2913D84B086F
:1041B000C90700D05B1C07EA83210180707888B1B1
:1041C000012832D03AE0018821F4F84101800188C9
:1041D00041F40041F1E74B09C90600D15B1E48EAF2
:1041E0008321EAE7B4F850003178204400EB011055
:1041F000316900F20C4049B13E290FD84B08C9077C
:1042000000D05B1C07EA8321018017E0018821F4BC
:10421000F8410180018841F40041F5E74B09C906E6
:1042200000D15B1E48EA8321EEE7B4F8501008196C
:10423000317800EB0110318AA0F80C14F069A8B3B2
:10424000317834F82100430401D5430603D444F205
:104250004003184254D134F82100104048F2C00203
:10426000104324F821004BE03CE0B1693069814201
:1042700002D9091AB16102E00846C6F818908BB954
:10428000B4F850103278214401EB021101F20441DC
:1042900068B13E2813D84208C30700D0521C07EA71
:1042A00082220A80717889B1012921D028E00A8808
:1042B00022F4F8420A800A8842F40042F1E74209F7
:1042C000C30600D1521E48EA8222EAE7B4F8501031
:1042D0003278214401EB021101F20C4100287FF4F5
:1042E0004BAF41E74209C0067FF450AF521E4DE785
:1042F000B4F850201119327801EB0211A1F80C0426
:10430000317834F821004BF68F72104080F4405021
:1043100040EA0A0024F82100002013E50021A0F85B
:1043200044104FF43F41A0F84010002070470000B7
:104330000148FDF773B900005C1B00200148FDF740
:104340006DB900005C1B0020B0F84400704700000D
:1043500010B500EB42005C0800F5806009D000BF9A
:1043600030F8042B01F8012B120A01F8012B641E0E
:10437000F6D1DA0701D00088087010BD0020704720
:1043800011B98021A0F84C100020704710B55B1CBB
:1043900000EB42005B0800F5806009D011F8012BAA
:1043A00011F8014B42EA042220F8042B5B1EF5D1E0
:1043B00010BDFEE70D4930B48879842814D10C4A29
:1043C0000020A2F110031082C870C0B21C1824880B
:1043D00064BA22F81040801CC0B2C8701028F4D310
:1043E00030BC034800F092BA30BC70470000002097
:1043F000900B00200907090E002804DB00F1E020E3
:1044000080F80014704700F00F0000F1E02080F801
:10441000141D70472DE9FF411DA3214E0FCB8DE8E0
:104420000F006F464FF00108A6F118040025785DD3
:10443000A07084F8018001E0082816D0A07806EB6F
:10444000C0016078014411F8011C00F057F9607850
:10445000401CC0B260700928EED3C820FCF71EFBD8
:1044600000F0B6F80B2D07D007E0A07806EBC000EF
:10447000C07900F037F9EAE708256079032804D10C
:104480006D1CEDB2102DD2D3D0E7BDE8FF81000046
:10449000191A1B1C1D1E1F20212223242526272814
:1044A0001800002010B5154892B0154A826000210E
:1044B00001600222C2601091FCF7A6FB10A90F4810
:1044C000FCF7FEFA90B1FCF74FFB0446402168462A
:1044D000FBF7CDFF23460BA240216846FBF7C4FE45
:1044E0006846FBF773FF0146684601E0092107A013
:1044F000FCF73CF9FCF73EFB12B010BD780C002035
:1045000000F80108455220256C750A004572617358
:1045100065204F4B0A00000010B50A460B4B11E016
:1045200010F8014BFF2C0AD00A4698420AD1FFF737
:10453000B9FF0A2106A0FCF719F9084810BD521E60
:1045400092B2F2E7002AEBD1401A10BDFFFF01083A
:104550004E6577206369636C650A000000F8010806
:1045600086B0FCF795FCFEF76CF916491448086014
:104570000846FCF734FA08B172B6FEE7FDF716FFFD
:10458000FDF796FFFDF772FF14220F496846FBF70F
:104590003CFF12210D48FFF7BFFF0A4C103CE060C2
:1045A000092000F021F84FF4FA60FCF777FA6D4625
:1045B000607955F820008047FFF7FCFEF8E700001F
:1045C0000030024010000020E44A000800F8010812
:1045D00010B50024601CC0B2002100F08FF8641CEC
:1045E000082CF7D310BD000010B53B490446C8693C
:1045F00040F48040C861886940F00800886137490C
:10460000086840F440100860086820F480000860E2
:10461000086840F400000860086840F040500860F6
:10462000086820F080400860086840F0004008609A
:10463000081F016841F440110160016821F4400144
:10464000016026480830016841F0200101602449DA
:10465000086840F004000860086840F40040086002
:10466000086840F480400860086820F0380008605E
:10467000086840F010000860086820F080000860BA
:10468000086840F400600860086840F480700860C2
:10469000086820F001000860086820F00200086047
:1046A000C86920F40060C861086840F040000860F4
:1046B00001210C2000F022F80021092000F01EF852
:1046C00007210B2000F01AF8204600F031F8BDE871
:1046D0001040FFF77DBF000000100240040C0140B5
:1046E0000030014030B5054600242946082000F07E
:1046F00005F8641C082CF8D330BD00000A4A10B538
:10470000136823F02003136041EA002107480023C7
:10471000C16084682406FCD45B1C022BF8D31068AB
:1047200040F02000106010BD0C0C01400030014032
:104730000F2800D90F2001460A20FFF7DFBF000035
:104740000A490B4A0968914203D10C2109A0FCF7E0
:104750000DB80022B1F1120131F8023B20F81230FD
:10476000521C92B2092AF7D3704700000C000020B7
:1047700000F80108466C61736820656D7074790AF1
:10478000000000002DE9FC411CA11E4DD1E90001F3
:104790006F464FF00108A5F11804CDE9000100268D
:1047A000B85DA07084F8018001E008281CD0A078D2
:1047B00005EBC0016078014411F8011CFFF79EFF72
:1047C0006078401CC0B260700928EED34FF4FA70D4
:1047D000FCF764F9FFF7FCFE607902280BD1761C28
:1047E000F6B2082EDCD3DAE7A07805EBC000C0797A
:1047F000FFF778FFE4E7BDE8FC8100001200131426
:1048000015161718180000202DE9FE431BA21E4D97
:1048100007CA8DE807006F464FF00108A5F118049C
:104820000026B85DA07084F8018001E008281CD043
:10483000A07805EBC0016078014411F8011CFFF776
:104840005DFF6078401CC0B260700928EED34FF461
:10485000FA70FCF723F9FFF7BBFE607900280BD153
:10486000761CF6B20C2EDCD3DAE7A07805EBC0009C
:10487000C079FFF737FFE4E7BDE8FE8300010203DC
:104880000403020100010001180000202DE9FC4191
:104890001C491D4D6F46D1E900014FF00108A5F1FB
:1048A0001804CDE900010026B85DA07084F80180ED
:1048B00001E008281CD0A07805EBC0016078014415
:1048C00011F8011CFFF71AFF6078401CC0B260703D
:1048D0000928EED34FF47A70FCF7E0F8FFF778FE82
:1048E000607904280BD1761CF6B2032EDCD3DAE70C
:1048F000A07805EBC000C079FFF7F4FEE4E7BDE85F
:10490000FC810000DC4A0008180000202DE9F0417D
:104910003B4C0546ACB012212068FFF7FDFD20603E
:10492000FCF772F900273E4635F8172000230120D6
:104930002168FCF729F998B1FCF716F98046402167
:104940001AA8FBF794FD43462EA240211AA8FBF7B4
:104950008BFC1AA8FBF73AFD01461AA8FBF706FFE5
:1049600020687F1C801CBFB22060092FDCD3FCF7BD
:1049700001F9242101A8FBF77AFD00200DF10404C0
:1049800035F8101044F82010401C80B20928F7D3E5
:10499000092221461D48FCF70BF807462E802846C1
:1049A000FFF7CEFE5FF0000035F8101044F820103D
:1049B000401C80B20928F7D3092201A91348FBF74C
:1049C000F7FF044640210AA8FBF751FD3B4610A221
:1049D00040210AA80094FBF747FC0AA8FBF7F6FC65
:1049E00001460AA8FBF7C2FEA74202D011210CA083
:1049F00001E00E210FA0FBF7B9FE2CB0BDE8F0815D
:104A00000C000020455220256C750A001000002083
:104A100053554D20256C7520256C750A000000004B
:104A200057726974652062756666204552524F520E
:104A30000A00000057726974652062756666204F2F
:104A40004B0A00002DE9F04186B018221CA16846EF
:104A5000FBF7DBFC204D6F464FF00108A5F1180471
:104A60000026B85DA07084F8018001E008281CD001
:104A7000A07805EBC0016078014411F8011CFFF734
:104A80003DFE6078401CC0B260700928EED34FF440
:104A9000FA70FCF703F8FFF79BFD607901280BD152
:104AA000761CF6B2152EDCD3DAE7A07805EBC00051
:104AB000C079FFF717FEE4E706B0BDE8F08100001B
:104AC00005060708090A0B0C0D0E0F101112130131
:104AD000000100010000000018000020292A2B001E
:104AE0000000000009480008454A00088547000802
:104AF000154400088D480008000000000000000078
:104B00000102030406070809284B000800000020E2
:104B10005C0B000028010008CC4F00085C0B002053
:104B20004C1900008C0100080316010001200766E3
:104B3000FFFF7E3C1809410740050000247E08B3B2
:104B40000018284006998142241808523408423C33
:104B500008526208527208527A0831585004669915
:104B6000C10852E10852F10852F90852FD08318893
:104B7000718F410A610961AB61B46195619E5240D8
:104B800008520409521109522109D28809524409D4
:104B9000522809524009520409521109522109525E
:104BA0008809412E5328443762284020093C42A5F9
:104BB00081A599423C0853BD8108111002FF0001F4
:104BC00001FF0101FF010153012204013C07000420
:104BD00000090912F10310040A0A1F02101A0A0040
:104BE000040F140E051E0400191902040813130003
:104BF000040A0A0A15120D30320838111610060878
:104C0000080402000412020C20090004150E1F0EF5
:104C1000150451121F51515C312C7E1FFC041006EB
:104C20000C0C00010150200E1010000E111315196C
:104C3000110E00040C82120E102119221F081306F7
:104C40000118200D02060A121F0202001F101E0189
:104C50001010060608101E1108221F4013080840F5
:104C6000221103210830050F01020C5C115F41087D
:104C70001190216621A0217F218111A8213A41684C
:104C800011F010080E11171517100FD81007111179
:104C90001F1111005D21031158100410101068231A
:104CA0001E0901121E801005101C1010441105323F
:104CB00010B83008101013110F0011373404110010
:104CC0000E4111981507300E02120C001112141823
:104CD00014121100100110061F00111B152B1211C8
:104CE00030200419151330210E2160117041502716
:104CF000111158218021381180220EF0321F5822C4
:104D0000046831303107320A10200415151B502277
:104D10000ABB3108212835181170160E97100408A7
:104D2000080E8021F2200401000E981602689F0AE6
:104D3000118506161FF84E02E20520070E010D131D
:104D4000130DB020051C12121C1111BB160EA82049
:104D50000601070909071017111F2844050609084D
:104D60001C782005130D010160140410161900159C
:104D70004B15C215B0370006003710100121153948
:104D80005A19521615021D0607212F210825022047
:104D9000040E00006E155022006611A82120256027
:104DA000140400000F0120041E00086F2F09068361
:104DB00006121173410815002110200415150A1060
:104DC000250121172A0F3015E83940170608F82B5E
:104DD0000806D83104170C02F81920430815F042D0
:104DE0001F01117745C0158535F86900461FB91BAD
:104DF0000006F024040A1F11F8112310071F0015E4
:104E000015150E0415A03A02A0219619C111DE4114
:104E10000865F82B0305389611F8592855F8461FF0
:104E2000D19900497095F031D0216D320E1045E8CE
:104E3000221201431F012015D832150131981107A4
:104E40001404010018F533090998240519151519DA
:104E5000D059D0320150100A1215151D1515120027
:104E60000F603705098811533C060D00010E1048EC
:104E70000315F8120902258029421D320336060067
:104E800049002560350139311A0600759857021519
:104E9000A01A13F9371300D13160350235B0A61FBF
:104EA000F845021D17043502311842101859301107
:104EB000A1292037040E0075E846000045F129308D
:104EC000450031083118431808C02C0611111D1374
:104ED0001DF203511038040E1107201612012DE4A3
:104EE0000444090F110F030D000A1FD8420AE021E4
:104EF000596E100509100924F4000D2D00084D0409
:104F000012590412810412BD041006DD2C00081988
:104F1000181C080403090412010059031C0800406E
:104F200083044057005A041203820F181A036705BE
:104F30001006DD060008D90412D1043C0401070064
:104F400018051F0A0636031D7309217C1004090287
:104F500043471C0500C03209430519B1101F010069
:104F60000524001001052401000104240202052487
:104F70000600010705820308001009047D2D0203C5
:104F80001C05070501027903200407058107013884
:104F9000441DC80921442DD80923090744023B04B4
:104FA000441006E5290008430443EF2AE812890C5F
:104FB0004007C92800081329F8651412CD1812C13A
:0C4FC0002812D908000500B529000800DF
:04000005080000ED02
:00000001FF
